S01800004C43445F70726F6A656374315F4769742E737265632F
S11300000C9434000C9451000C9451000C94510045
S11300100C9451000C9451000C9451000C94510018
S11300200C9451000C9451000C9451000C94510008
S11300300C9451000C9451000C9451000C945100F8
S11300400C9451000C9451000C9451000C945100E8
S11300500C9451000C9451000C9451000C945100D8
S11300600C9451000C94510011241FBECFEFD8E022
S1130070DEBFCDBF11E0A0E0B1E0E4E3F2E002C0F6
S113008005900D92A434B107D9F721E0A4E4B1E0BE
S113009001C01D92A434B207E1F70E94FB000C9446
S11300A018010C94000095B1987F95B98BB92A9AE0
S11300B085B1887F85B987EC90E00197F1F700C09E
S11300C0000008952FE785EB91E021508040904097
S11300D0E1F700C0000088E30E94530087EC90E041
S11300E00197F1F700C000008FE00E94530087ECF5
S11300F090E00197F1F700C0000081E00E945300F6
S11301008FE39FE10197F1F700C0000086E00E94B1
S1130110530087EC90E00197F1F700C000000895C8
S113012095B1987F95B98BB985B1856085B985B14D
S1130130887F85B987EC90E00197F1F700C0000053
S113014008951C990BC02FEF81EE94E0215080405C
S11301509040E1F700C0000082E008951B990BC0B5
S11301602FEF81EE94E0215080409040E1F700C0F1
S1130170000081E0089580E00895EF92FF920F93CC
S11301801F93CF93DF938C017C01C0E0D0E018C0B3
S1130190C031D10549F480EC0E94530087EC90E013
S11301A00197F1F700C00000F70181917F010E94DF
S11301B0900087EC90E00197F1F700C000002196D1
S11301C0F80101900020E9F73197E01BF10BCE17FD
S11301D0DF07F0F2DF91CF911F910F91FF90EF9025
S11301E0089581E00E9453008FE39FE10197F1F7A6
S11301F000C0000008951092C10087E284B98FEF17
S11302008AB985B1886185B90E94620080E091E075
S11302100E94BD000E94A100882341F02D9A0E94F3
S1130220F1008FE191E00E94BD00F4CF2D98F2CF50
S1070230F894FFCF6C
S113023448656C6C6F20576F726C64212E2E2E20CF
S1130244476F6F6462796520576F726C642100494B
S1130254206C696B6520626967206275747473200D
S1130264616E6420492063616E206E6F74206C6932
S107027465210000FC
S9030000FC
