S01800004C43445F70726F6A656374315F4769742E737265632F
S11300000C9434000C9451000C9451000C94510045
S11300100C9451000C9451000C9451000C94510018
S11300200C9451000C9451000C9451000C94510008
S11300300C9451000C9451000C9451000C945100F8
S11300400C9451000C9451000C9451000C945100E8
S11300500C9451000C9451000C9451000C945100D8
S11300600C9451000C94510011241FBECFEFD8E022
S1130070DEBFCDBF11E0A0E0B1E0E8EFF2E002C0E6
S113008005900D92A434B107D9F721E0A4E4B1E0BE
S113009001C01D92A434B207E1F70E9424010C941C
S11300A07A010C94000095B1987F95B98BB92A9A7E
S11300B085B1887F85B987EC90E00197F1F700C09E
S11300C0000008952FE785EB91E021508040904097
S11300D0E1F700C0000088E30E94530087EC90E041
S11300E00197F1F700C000008FE00E94530087ECF5
S11300F090E00197F1F700C0000081E00E945300F6
S11301008FE39FE10197F1F700C0000086E00E94B1
S1130110530087EC90E00197F1F700C000000895C8
S113012095B1987F95B98BB985B1856085B985B14D
S1130130887F85B987EC90E00197F1F700C0000053
S113014008951C990BC02FEF81EE94E0215080405C
S11301509040E1F700C0000082E008951B990BC0B5
S11301602FEF81EE94E0215080409040E1F700C0F1
S1130170000081E0089580E00895CF92DF92EF922D
S1130180FF920F931F93CF93DF9300D0CDB7DEB7C9
S1130190BE016F5F7F4F0E9441017C016C0100E052
S11301A010E00DC0F60181916F010E94900087EC70
S11301B090E00197F1F700C000000F5F1F4FF701B7
S11301C001900020E9F73197EE19FF090E171F0778
S11301D048F380EC0E945300BE016F5F7F4F89811A
S11301E09A810E9441017C016C0100E010E00DC085
S11301F0F60181916F010E94900087EC90E00197D5
S1130200F1F700C000000F5F1F4FF70101900020BD
S1130210E9F73197EE19FF090E171F0748F30F90FE
S11302200F90DF91CF911F910F91FF90EF90DF908E
S1130230CF90089581E00E9453008FE39FE10197DE
S1130240F1F700C0000008951092C10087E284B95C
S11302508FEF8AB985B1886185B90E94620080E018
S113026091E00E94BD000E94A100882341F02D9AD4
S11302700E941A018EE191E00E94BD00F4CF2D98F6
S1130280F2CFCF93DF93EC01009781F1FC01019051
S11302900020E9F73197E81BF90BE131F10530F162
S11302A03097F9F0DC01AF01EFEFFFEF20E030E031
S11302B09D91903209F4F9012F5F3F4F21313105AF
S11302C019F024173507A1F7FF235CF0DE01AE0F08
S11302D0BF1F1C923196EC0FFD1FDB01ED93FC93C5
S11302E005C0FB01D183C083C0E0D0E0CE01DF9123
S10B02F0CF910895F894FFCFAB
S11302F848656C6C6F20576F726C64212E2E2E200B
S1130308476F6F6462796520616E642049004920F3
S11303186C696B65206269672062757474737373A2
S113032820616E6420492063616E206E6F74206CB6
S107033869652100CE
S9030000FC
