:100000000C9434000C9451000C9451000C94510049
:100010000C9451000C9451000C9451000C9451001C
:100020000C9451000C9451000C9451000C9451000C
:100030000C9451000C9451000C9451000C945100FC
:100040000C9451000C9451000C9451000C945100EC
:100050000C9451000C9451000C9451000C945100DC
:100060000C9451000C94510011241FBECFEFD8E026
:10007000DEBFCDBF11E0A0E0B1E0E8EFF8E002C0E4
:1000800005900D92AE3FB107D9F721E0AEEFB1E098
:1000900001C01D92AE3FB207E1F70E9493010C949C
:1000A0007A040C94000095B1987F95B98BB92A9A7F
:1000B00085B1887F85B987EC90E00197F1F700C0A2
:1000C000000008952FE785EB91E02150804090409B
:1000D000E1F700C0000088E30E94530087EC90E045
:1000E0000197F1F700C000008FE00E94530087ECF9
:1000F00090E00197F1F700C0000081E00E945300FA
:100100008FE39FE10197F1F700C0000086E00E94B5
:10011000530087EC90E00197F1F700C000000895CC
:1001200095B1987F95B98BB985B1856085B985B151
:10013000887F85B987EC90E00197F1F700C0000057
:1001400008951C9B07C083B183FB992790F981E038
:100150008927089582E00895CF92DF92EF92FF926F
:100160000F931F93CF93DF9300D0CDB7DEB7BE01BF
:100170006F5F7F4F0E94F7017C016C0100E010E08F
:100180000DC0F60181916F010E94900087EC90E014
:100190000197F1F700C000000F5F1F4FF7010190BA
:1001A0000020E9F73197EE19FF090E171F0748F3F2
:1001B00080EC0E945300BE016F5F7F4F89819A815E
:1001C0000E94F7017C016C0100E010E00DC0F60117
:1001D00081916F010E94900087EC90E00197F1F708
:1001E00000C000000F5F1F4FF70101900020E9F7EA
:1001F0003197EE19FF090E171F0748F30F900F9064
:10020000DF91CF911F910F91FF90EF90DF90CF90F2
:10021000089581E00E9453008FE39FE10197F1F779
:1002200000C000000895882341F0EFE9FFE0319716
:10023000F1F700C000008150C1F708958F929F929E
:10024000AF92BF92CF92DF92EF92FF927B01009725
:1002500081F09C0140E050E060E472E48FE090E0C7
:100260000E943904CA01B9010E9440034B015C019C
:1002700008C00F2E812C912CF0E8AF2EF1E4BF2E98
:10028000F02DB70180E090E00E943E03A5019401AB
:100290000E94CC0320E030E048EC52E40E949D0232
:1002A0000E940F036B017C012D9A862F0E9413017F
:1002B0002D98B60180E090E00E943E039B01AC01C6
:1002C000C501B4010E9430020E940F03862F0E94D4
:1002D0001301FF90EF90DF90CF90BF90AF909F9071
:1002E0008F9008950F931F93CF93DF938B01EA01B3
:1002F0000E94AC0004C0BE01C8010E941E010E9401
:10030000A1008823C1F30E9409012FEF84E39CE040
:10031000215080409040E1F700C00000DF91CF9174
:100320001F910F9108951092C10087E284B98FEF59
:100330008AB985B1886185B90E94620045E050E0C4
:1003400060E070E080E091E00E9472014AE050E0DD
:1003500060E070E089E191E00E9472014EE150E0BE
:1003600060E070E080E291E00E9472014EE150E0B6
:1003700060E070E085E391E00E9472014CE350E0A0
:1003800060E070E08FE491E00E9472014CE350E085
:1003900060E070E080E791E00E94720140E550E08B
:1003A00060E070E08FE891E00E94720144E650E066
:1003B00060E070E087EA91E00E94720144E650E05C
:1003C00060E070E080EC91E00E94720142E350E056
:1003D00068EE73E08CED91E00E94720142E350E020
:1003E00068EE73E086EE91E00E947201A7CFCF9392
:1003F000DF93EC01009781F1FC0101900020E9F707
:100400003197E81BF90BE131F10530F13097F9F044
:10041000DC01AF01EFEFFFEF20E030E09D91903283
:1004200009F4F9012F5F3F4F2131310519F02417ED
:100430003507A1F7FF235CF0DE01AE0FBF1F1C9252
:100440003196EC0FFD1FDB01ED93FC9305C0FB0122
:10045000D183C083C0E0D0E0CE01DF91CF91089579
:100460005058BB27AA270E9448020C9492030E946E
:10047000840338F00E948B0320F039F49F3F19F475
:1004800026F40C9481030EF4E095E7FB0C947B03B7
:10049000E92F0E94A30358F3BA1762077307840772
:1004A000950720F079F4A6F50C94C5030EF4E095B9
:1004B0000B2EBA2FA02D0B01B90190010C01CA011E
:1004C000A0011124FF27591B99F0593F50F4503EC9
:1004D00068F11A16F040A22F232F342F4427585FBB
:1004E000F3CF469537952795A795F0405395C9F7D3
:1004F0007EF41F16BA0B620B730B840BBAF091508B
:10050000A1F0FF0FBB1F661F771F881FC2F70EC029
:10051000BA0F621F731F841F48F4879577956795FC
:10052000B795F7959E3F08F0B0CF9395880F08F0E8
:100530009927EE0F9795879508950E94B1020C9424
:1005400092030E948B0358F00E94840340F029F428
:100550005F3F29F00C947B0351110C94C6030C945B
:1005600081030E94A30368F39923B1F3552391F308
:10057000951B550BBB27AA2762177307840738F012
:100580009F5F5F4F220F331F441FAA1FA9F335D06F
:100590000E2E3AF0E0E832D091505040E695001C23
:1005A000CAF72BD0FE2F29D0660F771F881FBB1FDD
:1005B000261737074807AB07B0E809F0BB0B802DBB
:1005C000BF01FF2793585F4F3AF09E3F510578F0E7
:1005D0000C947B030C94C6035F3FE4F3983ED4F382
:1005E000869577956795B795F7959F5FC9F7880FBB
:1005F000911D9695879597F90895E1E0660F771F0D
:10060000881FBB1F621773078407BA0720F0621B9D
:10061000730B840BBA0BEE1F88F7E09508950E94C8
:10062000AB0388F09F5798F0B92F9927B751B0F0D6
:10063000E1F0660F771F881F991F1AF0BA95C9F766
:1006400014C0B13091F00E94C503B1E008950C943C
:10065000C503672F782F8827B85F39F0B93FCCF3EF
:10066000869577956795B395D9F73EF490958095E3
:10067000709561957F4F8F4F9F4F0895E89409C003
:1006800097FB3EF490958095709561957F4F8F4FC5
:100690009F4F9923A9F0F92F96E9BB279395F695DB
:1006A000879577956795B795F111F8CFFAF4BB0F59
:1006B00011F460FF1BC06F5F7F4F8F4F9F4F16C0BD
:1006C000882311F096E911C0772321F09EE8872F47
:1006D000762F05C0662371F096E8862F70E060E003
:1006E0002AF09A95660F771F881FDAF7880F96957C
:1006F000879597F9089597F99F6780E870E060E023
:1007000008959FEF80EC089500240A9416161706AA
:1007100018060906089500240A94121613061406F2
:1007200005060895092E0394000C11F4882352F055
:10073000BB0F40F4BF2B11F460FF04C06F5F7F4F0D
:100740008F4F9F4F089557FD9058440F551F59F0F4
:100750005F3F71F04795880F97FB991F61F09F3FAE
:1007600079F087950895121613061406551FF2CFD7
:100770004695F1DF08C0161617061806991FF1CF27
:1007800086957105610508940895E894BB2766274E
:100790007727CB0197F908950E94DF030C94920309
:1007A0000E94840338F00E948B0320F0952311F0FF
:1007B0000C947B030C94810311240C94C6030E94B7
:1007C000A30370F3959FC1F3950F50E0551F629FEF
:1007D000F001729FBB27F00DB11D639FAA27F00D9A
:1007E000B11DAA1F649F6627B00DA11D661F829FC1
:1007F0002227B00DA11D621F739FB00DA11D621FA6
:10080000839FA00D611D221F749F3327A00D611DC2
:10081000231F849F600D211D822F762F6A2F1124A4
:100820009F5750409AF0F1F088234AF0EE0FFF1FD7
:10083000BB1F661F771F881F91505040A9F79E3F2E
:10084000510580F00C947B030C94C6035F3FE4F3E6
:10085000983ED4F3869577956795B795F795E79584
:100860009F5FC1F7FE2B880F911D9695879597F98D
:100870000895052E97FB1EF400940E94500457FD26
:1008800007D00E94580407FC03D04EF40C94500487
:1008900050954095309521953F4F4F4F5F4F0895AC
:1008A00090958095709561957F4F8F4F9F4F0895DC
:1008B000A1E21A2EAA1BBB1BFD010DC0AA1FBB1F64
:1008C000EE1FFF1FA217B307E407F50720F0A21BD6
:1008D000B30BE40BF50B661F771F881F991F1A9443
:1008E00069F760957095809590959B01AC01BD016D
:0808F000CF010895F894FFCF39
:1008F800416E6420776861742068617070656E6508
:10090800642C207468656E3F0057656C6C2C200061
:10091800696E2057686F76696C6C652074686579B4
:1009280020736179002D20746861742074686520D3
:100938004772696E6368277320736D616C6C006819
:1009480065617274206772657720746872656520C6
:1009580073697A65732074686174206461792E0004
:10096800416E64207468656E202D2074686520745B
:10097800727565206D65616E696E67206F660043EC
:1009880068726973746D61732063616D6520746842
:10099800726F7567682C00616E6420746865204703
:1009A80072696E636820666F756E6420746865008E
:1009B800737472656E677468206F66202A74656E3A
:1009C8002A204772696E636865732C00706C7573B2
:1009D8002074776F21004D6572727920486F6C69B9
:0E09E8006461797321205265706C61793F0063
:00000001FF
