S01800004C43445F70726F6A656374315F4769742E737265632F
S11300000C9434000C9451000C9451000C94510045
S11300100C9451000C9451000C9451000C94510018
S11300200C9451000C9451000C9451000C94510008
S11300300C9451000C9451000C9451000C945100F8
S11300400C9451000C9451000C9451000C945100E8
S11300500C9451000C9451000C9451000C945100D8
S11300600C9451000C94510011241FBECFEFD8E022
S1130070DEBFCDBF11E0A0E0B1E0ECECF8E002C0DF
S113008005900D92A033B107D9F721E0A0E3B1E0C8
S113009001C01D92A633B207E1F70E9413010C942C
S11300A064040C94000095B1987F95B995E09A95F5
S11300B0F1F700008BB985E08A95F1F700002A9AE0
S11300C095E09A95F1F7000085B1887F85B987ECB2
S11300D090E00197F1F700C00000089595B1987F72
S11300E095B995E09A95F1F700008BB985E08A956A
S11300F0F1F7000085B1856085B995E09A95F1F72F
S1130100000085B1887F85B987EC90E00197F1F70D
S113011000C0000008952FEF80E792E02150804056
S11301209040E1F700C0000088E30E9453008FE391
S113013091E00197F1F700C000008FE00E945300A6
S11301408FE391E00197F1F700C0000081E00E9485
S113015053008FED9EE20197F1F700C0000086E0A6
S11301600E9453008FE391E00197F1F700C0000073
S113017008950F931F93CF93DF9300D000D000D046
S1130180CDB7DEB79E012B5F3F4FAE014D5F5F4F92
S1130190BE016F5F7F4F0E94370100E010E00DC089
S11301A0A00FB11F8C910E946E008FE891E001971F
S11301B0F1F700C000000F5F1F4FA981BA81FD0154
S11301C001900020E9F73197EA1BFB0B0E171F077C
S11301D038F380EC0E94530000E010E00DC0A00F43
S11301E0B11F8C910E946E008FE891E00197F1F7A6
S11301F000C000000F5F1F4FAB81BC81FD01019067
S11302000020E9F73197EA1BFB0B0E171F0738F3A1
S113021026960FB6F894DEBF0FBECDBFDF91CF9107
S11302201F910F9108951092C10087E284B98FEF56
S11302308AB985B1886185B90E948B0086E091E016
S11302400E94B90093B123B130E020953095287015
S11302503327892F90E08095909580719927822B80
S1130260932B892B11F02D9AEDCF2D98EBCF4F9234
S11302705F926F927F928F929F92AF92BF92CF9232
S1130280DF92EF92FF920F931F93CF93DF93EC01D2
S11302904B012A01590161E070E081E190E00E9484
S11302A0D301D4018D939C9361E070E081E190E0EF
S11302B00E94D301F2019183808361E070E081E0C8
S11302C090E00E94D301D5018D939C93F401E080CA
S11302D0F1806DE271E0CE010E94E603EC01892B0E
S11302E071F450C00115110581F0F701019000204F
S11302F0E9F73197718260820F5F1F4F06C000E0FB
S113030010E06894662465F8712CFE0101900020C9
S1130310E9F73197EC1BFD0B0E0F1F1F013111057F
S113032094F0D501CD90DC90CE14DF0499F0D40183
S11303308D919C918E159F0519F4D201CD90DC907E
S11303408F01760111C0F501808191818E159F0581
S113035059F46701B8016F5F7F4FC6010E941C0307
S1130360D5018D939C937601BE01C7010E94FB03C6
S11303706DE271E080E090E00E94E603EC01892BDD
S113038009F0B0CFDF91CF911F910F91FF90EF90C3
S1130390DF90CF90BF90AF909F908F907F906F90A1
S11303A05F904F9008950F931F93CF93DF93869F91
S11303B08001879F100D969F100D1124C8010E9483
S11303C0EF01EC01009729F0A80160E070E00E94C1
S11303D0F403CE01DF91CF911F910F910895CF9334
S11303E0DF938230910510F482E090E0E0913401D3
S11303F0F091350120E030E0C0E0D0E0309711F119
S11304004081518148175907C0F04817590761F4D2
S113041082819381209719F09B838A832BC09093C8
S113042035018093340126C02115310519F0421796
S1130430530718F49A01BE01DF01EF010280F38132
S1130440E02DDCCF2115310509F1281B390B2430AF
S1130450310590F412968D919C9113976115710555
S113046021F0FB019383828304C090933501809330
S11304703401FD01329644C0FD01E20FF31F819364
S11304809193225031092D933C933AC0209132012B
S113049030913301232B41F4209102013091030167
S11304A030933301209332012091000130910101F6
S11304B02115310541F42DB73EB740910401509107
S11304C00501241B350BE0913201F0913301E21751
S11304D0F307A0F42E1B3F0B2817390778F0AC0163
S11304E04E5F5F4F2417350748F04E0F5F1F509340
S11304F03301409332018193919302C0E0E0F0E034
S1130500CF01DF91CF9108950F931F93CF93DF9382
S1130510009709F48CC0FC01329713821282009177
S11305203401109135010115110581F420813181C7
S1130530820F931F2091320130913301281739071C
S113054079F5F0933301E093320171C0D80140E0B2
S113055050E0AE17BF0750F412962D913C911397BB
S1130560AD012115310509F1D901F3CF9D01DA015E
S11305703383228360817181860F971F82179307CB
S113058069F4EC0128813981260F371F2E5F3F4F14
S1130590318320838A819B8193838283452B29F431
S11305A0F0933501E093340142C01396FC93EE932B
S11305B01297ED01499159919E01240F351FE217BD
S11305C0F30771F480819181840F951F029611962F
S11305D09C938E938281938113969C938E9312970E
S11305E0E0E0F0E0D80112968D919C91139700976A
S11305F019F0F8018C01F6CF8D919C9198012E5F32
S11306003F4F820F931F20913201309133012817FD
S1130610390769F4309729F41092350110923401A6
S113062002C0138212821093330100933201DF91CE
S1130630CF911F910F910895A0E0B0E0E2E2F3E0C2
S11306400C943104EC01009721F4CB010E94EF01DA
S1130650B8C0FC01E60FF71F9C0122503109E217D4
S1130660F30708F4ACC0D9010D911C91119706173A
S11306701707B0F00530110508F49FC0C8010497AE
S11306808617970708F499C002501109061B170B27
S1130690019311936D937C93CF010E9484028DC0CA
S11306A05B01A01AB10A4C01800E911EA091340185
S11306B0B091350140E050E0E12CF12C109709F4A1
S11306C04AC0A815B905D1F56D907C9011976301C6
S11306D082E0C80ED11CCA14DB0480F1A3014A19BC
S11306E05B096A0182E0C80ED11C1296BC90129775
S11306F01396AC91B5E0CB16D10440F0B282A3833B
S113070051834083D9016D937C930AC00E5F1F4FC0
S1130710C301800F911FF90191838083EB2DFA2F80
S1130720E114F10431F0D7011396FC93EE93129780
S113073044C0F0933501E09334013FC08D919C9106
S113074011974817590708F4AC017D0112960D90D2
S1130750BC91A02DB3CF80913201909133018815C3
S11307609905E1F446175707C8F480910001909168
S11307700101009741F48DB79EB740910401509157
S11307800501841B950BE817F907C8F4F0933301AE
S1130790E0933201F901718360830FC0CB010E94A1
S11307A0EF017C01009759F0A801BE010E94EB0300
S11307B0CE010E948402C70104C0CE0102C080E0C1
S11307C090E0CDB7DEB7EEE00C944D0440E351E089
S11307D00E9406040895FB01DC0102C001900D9201
S11307E041505040D8F70895DC0101C06D93415049
S11307F05040E0F70895FB01DC010D900020E9F77B
S1130800119701900D920020E1F70895FA01A1914A
S1130810B081009719F41097E1F0CD01DC01CD010E
S11308200D90002011F4C00113C0FB01219122237B
S113083019F02015D9F7F3CFFB012191201519F4F4
S11308401E92119606C02223C1F70D900020A1F735
S1130850D001FA01A193B08308952F923F924F9251
S11308605F926F927F928F929F92AF92BF92CF923C
S1130870DF92EF92FF920F931F93CF93DF93CDB745
S1130880DEB7CA1BDB0B0FB6F894DEBF0FBECDBFBD
S113089009942A88398848885F846E847D848C848E
S11308A09B84AA84B984C884DF80EE80FD800C8197
S11308B01B81AA81B981CE0FD11D0FB6F894DEBF7A
S10F08C00FBECDBFED010895F894FFCFEA
S11308CC00003601200048656C6C6F20576F726C09
S11308DC64212049616D76657279686170707974F0
S11308EC6F747279746869736F75742100200000D9
S9030000FC
