:100000000C9434000C9449000C9449000C94490061
:100010000C9449000C9449000C9449000C9449003C
:100020000C9449000C9449000C9449000C9449002C
:100030000C9449000C9449000C9449000C9449001C
:100040000C9449000C9449000C9449000C9449000C
:100050000C9449000C9449000C9449000C944900FC
:100060000C9449000C94490011241FBECFEFD8E036
:10007000DEBFCDBF11E0A0E0B1E0E2E5F2E002C0FA
:1000800005900D92AE32B107D9F70E940A010C9487
:1000900027010C940000282F207F8295807F95B146
:1000A000987F95B92BB92A9A95B1987F95B98BB954
:1000B0002A9A85B1887F85B987EC90E00197F1F79E
:1000C00000C0000008952FE785EB91E021508040AB
:1000D0009040E1F700C0000088E20E944B0087ECEE
:1000E00090E00197F1F700C000008FE00E944B0004
:1000F00087EC90E00197F1F700C0000081E00E94DA
:100100004B008FE79EE30197F1F700C0000086E007
:100110000E944B0087EC90E00197F1F700C00000CF
:100120000895282F207F8295807F95B1987F95B97B
:100130002BB995B1956095B995B1987F95B98BB963
:1001400085B1856085B985B1887F85B987EC90E0F8
:100150000197F1F700C0000008951C990BC02FEF24
:1001600084E39CE0215080409040E1F700C0000013
:1001700082E008951B990BC02FEF84E39CE021508F
:1001800080409040E1F700C0000081E0089580E0E9
:100190000895EF92FF920F931F93CF93DF938C01FB
:1001A0007C01C0E0D0E01BC0C031D10561F480EC1F
:1001B0000E944B002FEF80E792E02150804090405A
:1001C000E1F700C00000F70181917F010E949100DA
:1001D00087EC90E00197F1F700C000002196F8014C
:1001E00001900020E9F73197E01BF10BCE17DF07F4
:1001F000D8F2DF91CF911F910F91FF90EF9008956A
:1002000081E00E944B008FE79EE30197F1F700C069
:10021000000008951092C10087E284B98FEF8AB977
:1002200085B1886185B90E94630080E091E00E94F9
:10023000C9000E94AD00882341F02D9A0E94000160
:1002400080E291E00E94C900F4CF2D98F2CFF8949B
:02025000FFCFDE
:1002520048656C6C6F2C20576F726C6421202020D3
:100262005072657373206120627574746F6E3F0003
:0E027200596F75206469642069742121210090
:00000001FF
