:100000000C9434000C943E000C943E000C943E0082
:100010000C943E000C943E000C943E000C943E0068
:100020000C943E000C943E000C943E000C943E0058
:100030000C943E000C943E000C943E000C943E0048
:100040000C943E000C943E000C943E000C943E0038
:100050000C943E000C943E000C943E000C943E0028
:100060000C943E000C943E0011241FBECFEFD8E04C
:10007000DEBFCDBF0E9473000C9481000C94000081
:10008000282F207F8295807F95B1987F95B92BB9D5
:100090002A9A95B1987F95B98BB92A9A85B1887FAC
:1000A00085B90895299A89B108952FE785EB91E0E4
:1000B000215080409040E1F700C0000088E20E949B
:1000C00040000E9452008FE00E9440000E945200B7
:1000D00081E00E9440000E94520086E00E944000A1
:1000E0000E94520008951092C10087E284B98FEFF8
:1000F0008AB985B1886185B90E94550081E090E098
:060100000895F894FFCF02
:00000001FF
