:100000000C9434000C943E000C943E000C943E0082
:100010000C943E000C943E000C943E000C943E0068
:100020000C943E000C943E000C943E000C943E0058
:100030000C943E000C943E000C943E000C943E0048
:100040000C943E000C943E000C943E000C943E0038
:100050000C943E000C943E000C943E000C943E0028
:100060000C943E000C943E0011241FBECFEFD8E04C
:10007000DEBFCDBF0E94AE000C94CC000C940000FB
:10008000282F207F8295807F95B1987F95B92BB9D5
:100090002A9AE7ECF0E03197F1F700C0000095B143
:1000A000987F95B98BB92A9A87EC90E00197F1F780
:1000B00000C0000085B1887F85B908952FE785EBE2
:1000C00091E0215080409040E1F700C0000088E2BC
:1000D0000E94400087EC90E00197F1F700C000001B
:1000E0008FE00E9440008FE39FE10197F1F700C08D
:1000F000000081E00E94400087EC90E00197F1F75A
:1001000000C0000086E00E94400087EC90E001976C
:10011000F1F700C000000895282F207F8295807F8E
:1001200095B1987F95B92BB995B1956095B9E7ECE4
:10013000F0E03197F1F700C0000095B1997F95B9D3
:100140008BB985B1856085B987EC90E00197F1F7AF
:1001500000C0000085B1887F85B9089587E284B921
:100160008FEF8AB985B1886185B90E945E0088E405
:100170000E948C0085E40E948C008CE40E948C001C
:100180008CE40E948C008FE40E948C0081E20E942B
:0C0190008C0081E090E00895F894FFCF0F
:00000001FF
